:020000040000FA
:020000002028B6
:040002000034003492
:100040008316860183120130860003106D2007306D
:10005000A000860D6F20A00B29286D200730A1007D
:10006000860C6F20A10B30283528352800000000B1
:10007000000000000000000008000000A430492833
:100080000000403049281F30492800000E30492820
:1000900005308C008C0B4A280800C8305C2864307E
:1000A0005C2832305C2814305C280A305C2805302B
:1000B0005C2802305C2801308D00F9308C00000093
:1000C0008C0B5F288D0B5D280800C83070286430C9
:1000D000702832307028143070280A3070280530AB
:1000E0008E0064308D00F9308C0000008C0B752878
:0A00F0008D0B73288E0B7128080099
:02400E00F13F80
:00000001FF
