:020000040000FA
:1000000083168601F0308600831285011530850045
:100010002E20051E0C2818280130602054306F2037
:1000200053306F2043306F20E7206A20E9200928F1
:100030000130602049306F204E306F2054306F20E7
:1000400045306F2052306F2046306F2041306F2096
:100050005A306F20E7206A20E9200928831605100E
:10006000051185108312851005110510CF20303041
:100070004620D32030304620BC203030462020306F
:1000800046206C206A2068205A200800F0398C0035
:1000900006080F398C04831606088E000F3086057B
:1000A00083120C0886000515051183160E088600BC
:1000B0008312080006306D2880306D28C0306D280E
:1000C00080386D28C0386D2808306D280E306D28B6
:1000D0000C306D2801306D2828300510712805146A
:1000E00079208D0046200D0E4620051CD520C1200C
:1000F00008008C00F13C031D8028EE308C008D2818
:100100000C08D13C031D8728EE308C008D280C088C
:10011000BA3C031D8D28DF308C000C08080010301D
:100120009628013096280230962803308F00203020
:100130006F208F0B972808009000F039031DA4282A
:1001400020306F20A6289000100EA72010080F392D
:100150008F00093C031CAF280F08303EB1280F0860
:10016000373E6F2800000000000000000000000083
:1001700008000000A430C52800004030C5281F300A
:10018000C52800000E30C52805309100910BC62807
:100190000800C830D8286430D8283230D828143025
:1001A000D8280A30D8280530D8280230D82801307D
:1001B0009200F93091000000910BDB28920BD928B6
:1001C0000800C830EC286430EC283230EC281430B9
:1001D000EC280A30EC280530930064309200F930A6
:1001E00091000000910BF128920BEF28930BED2862
:0201F000080005
:0401F20000340034A1
:02400E00F13F80
:00000001FF
