:020000040000FA
:1000000083161030850083127120851A0828142861
:100010000130A3205430B2205330B2204330B220FC
:100020005F20AD20612005280130A5204930B22095
:100030004E30B2205430B2204530B2205230B2207F
:100040004630B2204130B2205A30B2205F20AD207D
:1000500061200528000000000000000000000000F2
:1000600008000000A4303D28000040303D281F302B
:100070003D2800000E303D2805308C008C0B3E28BA
:100080000800C830502864305028323050281430CE
:1000900050280A30502805305028023050280130AE
:1000A0008D00F9308C0000008C0B53288D0B5128EB
:1000B0000800C83064286430642832306428143062
:1000C00064280A30642805308E0064308D00F930D1
:1000D0008C0000008C0B69288D0B67288E0B65281F
:1000E000080083160510051185108312851005116F
:1000F00005104720303089204B20303089203420B3
:100100003030892020308920AF20AD20AB209D20C9
:100110000800F0398F0006080F398F04831606088F
:1001200091000F30860583120F0886000515051112
:10013000831611088600831208000630B02880302C
:10014000B028C030B0288038B028C038B028083077
:10015000B0280E30B0280C30B0280130B02828303C
:100160000510B4280514BC2090008920100E8920A9
:10017000051C4D20392008008F00F13C031DC328C9
:10018000EE308F00D0280F08D13C031DCA28EE3076
:100190008F00D0280F08BA3C031DD028DF308F0015
:1001A0000F0808001030D9280130D9280230D9288A
:1001B000033092002030B220920BDA28080093001E
:1001C000F039031DE7282030B220E9289300130EF0
:1001D000EA2013080F399200093C031CF228120888
:0A01E000303EF4281208373EB22822
:0401EA0000340034A9
:02400E00F13F80
:00000001FF
