:020000040000FA
:020000000528D1
:040002000034003492
:0800080009008316FF30860099
:100010008501831206088C000F398D000C0E0F39F4
:100020008E000D078E0010300E020130031C0030D0
:100030008F00031C1E2810300E021F280E080F39D7
:100040008C0085010C1805148C1885140C190515E5
:100050008C1985150F1C05164D200A28000000007C
:10006000000000000000000008000000A43041284B
:100070000000403041281F30412800000E30412848
:1000800005308C008C0B42280800C830542864309E
:10009000542832305428143054280A30542805305B
:1000A00054280230542801308D00F9308C000000B3
:1000B0008C0B57288D0B55280800C83068286430F1
:1000C000682832306828143068280A3068280530DB
:1000D0008E0064308D00F9308C0000008C0B6D2890
:0A00E0008D0B6B288E0B69280800B9
:02400E00F13F80
:00000001FF
